{"contracts/SignatureVerification.sol":{"SignatureVerification":{"abi":[{"inputs":[],"stateMutability":"nonpayable","type":"constructor"},{"inputs":[],"name":"ECDSAInvalidSignature","type":"error"},{"inputs":[{"internalType":"uint256","name":"length","type":"uint256"}],"name":"ECDSAInvalidSignatureLength","type":"error"},{"inputs":[{"internalType":"bytes32","name":"s","type":"bytes32"}],"name":"ECDSAInvalidSignatureS","type":"error"},{"inputs":[{"internalType":"uint256","name":"value","type":"uint256"},{"internalType":"uint256","name":"length","type":"uint256"}],"name":"StringsInsufficientHexLength","type":"error"},{"inputs":[{"internalType":"address","name":"userAddress","type":"address"},{"internalType":"string","name":"domain","type":"string"},{"internalType":"string","name":"statement","type":"string"},{"internalType":"string","name":"uri","type":"string"},{"internalType":"uint256","name":"chainId","type":"uint256"},{"internalType":"uint256","name":"nonce","type":"uint256"}],"name":"createMessageHash","outputs":[{"internalType":"bytes32","name":"","type":"bytes32"}],"stateMutability":"pure","type":"function"},{"inputs":[{"internalType":"bytes32","name":"hash","type":"bytes32"},{"internalType":"bytes","name":"signature","type":"bytes"}],"name":"verifySignature","outputs":[{"internalType":"bool","name":"","type":"bool"}],"stateMutability":"view","type":"function"}],"evm":{"bytecode":{"linkReferences":{},"object":"6080604052348015600f57600080fd5b506114028061001f6000396000f3fe608060405234801561001057600080fd5b50600436106100365760003560e01c80635fbcc1551461003b578063daca6f781461006b575b600080fd5b61005560048036038101906100509190610ab2565b61009b565b6040516100629190610bac565b60405180910390f35b61008560048036038101906100809190610c94565b61010a565b6040516100929190610d0b565b60405180910390f35b6000856100bf8873ffffffffffffffffffffffffffffffffffffffff16601461017d565b86866100ca876103c3565b6100d3876103c3565b6040516020016100e896959493929190611043565b6040516020818303038152906040528051906020012090509695505050505050565b6000808360405160200161011e9190611197565b60405160208183030381529060405280519060200120905060006101428285610491565b90503373ffffffffffffffffffffffffffffffffffffffff168173ffffffffffffffffffffffffffffffffffffffff16149250505092915050565b606060008390506000600284600261019591906111ec565b61019f919061122e565b67ffffffffffffffff8111156101b8576101b7610951565b5b6040519080825280601f01601f1916602001820160405280156101ea5781602001600182028036833780820191505090505b5090507f30000000000000000000000000000000000000000000000000000000000000008160008151811061022257610221611262565b5b60200101907effffffffffffffffffffffffffffffffffffffffffffffffffffffffffffff1916908160001a9053507f78000000000000000000000000000000000000000000000000000000000000008160018151811061028657610285611262565b5b60200101907effffffffffffffffffffffffffffffffffffffffffffffffffffffffffffff1916908160001a905350600060018560026102c691906111ec565b6102d0919061122e565b90505b6001811115610370577f3031323334353637383961626364656600000000000000000000000000000000600f84166010811061031257610311611262565b5b1a60f81b82828151811061032957610328611262565b5b60200101907effffffffffffffffffffffffffffffffffffffffffffffffffffffffffffff1916908160001a905350600483901c92508061036990611291565b90506102d3565b50600082146103b85784846040517fe22e27eb0000000000000000000000000000000000000000000000000000000081526004016103af9291906112c9565b60405180910390fd5b809250505092915050565b6060600060016103d2846104bd565b01905060008167ffffffffffffffff8111156103f1576103f0610951565b5b6040519080825280601f01601f1916602001820160405280156104235781602001600182028036833780820191505090505b509050600082602001820190505b600115610486578080600190039150507f3031323334353637383961626364656600000000000000000000000000000000600a86061a8153600a858161047a576104796112f2565b5b04945060008503610431575b819350505050919050565b6000806000806104a18686610610565b9250925092506104b1828261066c565b82935050505092915050565b600080600090507a184f03e93ff9f4daa797ed6e38ed64bf6a1f010000000000000000831061051b577a184f03e93ff9f4daa797ed6e38ed64bf6a1f0100000000000000008381610511576105106112f2565b5b0492506040810190505b6d04ee2d6d415b85acef81000000008310610558576d04ee2d6d415b85acef8100000000838161054e5761054d6112f2565b5b0492506020810190505b662386f26fc10000831061058757662386f26fc10000838161057d5761057c6112f2565b5b0492506010810190505b6305f5e10083106105b0576305f5e10083816105a6576105a56112f2565b5b0492506008810190505b61271083106105d55761271083816105cb576105ca6112f2565b5b0492506004810190505b606483106105f857606483816105ee576105ed6112f2565b5b0492506002810190505b600a8310610607576001810190505b80915050919050565b600080600060418451036106555760008060006020870151925060408701519150606087015160001a9050610647888285856107d0565b955095509550505050610665565b60006002855160001b9250925092505b9250925092565b600060038111156106805761067f611321565b5b82600381111561069357610692611321565b5b03156107cc57600160038111156106ad576106ac611321565b5b8260038111156106c0576106bf611321565b5b036106f7576040517ff645eedf00000000000000000000000000000000000000000000000000000000815260040160405180910390fd5b6002600381111561070b5761070a611321565b5b82600381111561071e5761071d611321565b5b03610763578060001c6040517ffce698f700000000000000000000000000000000000000000000000000000000815260040161075a9190611350565b60405180910390fd5b60038081111561077657610775611321565b5b82600381111561078957610788611321565b5b036107cb57806040517fd78bce0c0000000000000000000000000000000000000000000000000000000081526004016107c29190610bac565b60405180910390fd5b5b5050565b60008060007f7fffffffffffffffffffffffffffffff5d576e7357a4501ddfe92f46681b20a08460001c11156108105760006003859250925092506108ba565b6000600188888888604051600081526020016040526040516108359493929190611387565b6020604051602081039080840390855afa158015610857573d6000803e3d6000fd5b505050602060405103519050600073ffffffffffffffffffffffffffffffffffffffff168173ffffffffffffffffffffffffffffffffffffffff16036108ab57600060016000801b935093509350506108ba565b8060008060001b935093509350505b9450945094915050565b6000604051905090565b600080fd5b600080fd5b600073ffffffffffffffffffffffffffffffffffffffff82169050919050565b6000610903826108d8565b9050919050565b610913816108f8565b811461091e57600080fd5b50565b6000813590506109308161090a565b92915050565b600080fd5b600080fd5b6000601f19601f8301169050919050565b7f4e487b7100000000000000000000000000000000000000000000000000000000600052604160045260246000fd5b61098982610940565b810181811067ffffffffffffffff821117156109a8576109a7610951565b5b80604052505050565b60006109bb6108c4565b90506109c78282610980565b919050565b600067ffffffffffffffff8211156109e7576109e6610951565b5b6109f082610940565b9050602081019050919050565b82818337600083830152505050565b6000610a1f610a1a846109cc565b6109b1565b905082815260208101848484011115610a3b57610a3a61093b565b5b610a468482856109fd565b509392505050565b600082601f830112610a6357610a62610936565b5b8135610a73848260208601610a0c565b91505092915050565b6000819050919050565b610a8f81610a7c565b8114610a9a57600080fd5b50565b600081359050610aac81610a86565b92915050565b60008060008060008060c08789031215610acf57610ace6108ce565b5b6000610add89828a01610921565b965050602087013567ffffffffffffffff811115610afe57610afd6108d3565b5b610b0a89828a01610a4e565b955050604087013567ffffffffffffffff811115610b2b57610b2a6108d3565b5b610b3789828a01610a4e565b945050606087013567ffffffffffffffff811115610b5857610b576108d3565b5b610b6489828a01610a4e565b9350506080610b7589828a01610a9d565b92505060a0610b8689828a01610a9d565b9150509295509295509295565b6000819050919050565b610ba681610b93565b82525050565b6000602082019050610bc16000830184610b9d565b92915050565b610bd081610b93565b8114610bdb57600080fd5b50565b600081359050610bed81610bc7565b92915050565b600067ffffffffffffffff821115610c0e57610c0d610951565b5b610c1782610940565b9050602081019050919050565b6000610c37610c3284610bf3565b6109b1565b905082815260208101848484011115610c5357610c5261093b565b5b610c5e8482856109fd565b509392505050565b600082601f830112610c7b57610c7a610936565b5b8135610c8b848260208601610c24565b91505092915050565b60008060408385031215610cab57610caa6108ce565b5b6000610cb985828601610bde565b925050602083013567ffffffffffffffff811115610cda57610cd96108d3565b5b610ce685828601610c66565b9150509250929050565b60008115159050919050565b610d0581610cf0565b82525050565b6000602082019050610d206000830184610cfc565b92915050565b600081905092915050565b7f19457468657265756d205369676e6564204d6573736167653a0a000000000000600082015250565b6000610d67601a83610d26565b9150610d7282610d31565b601a82019050919050565b7f446f6d61696e3a20000000000000000000000000000000000000000000000000600082015250565b6000610db3600883610d26565b9150610dbe82610d7d565b600882019050919050565b600081519050919050565b60005b83811015610df2578082015181840152602081019050610dd7565b60008484015250505050565b6000610e0982610dc9565b610e138185610d26565b9350610e23818560208601610dd4565b80840191505092915050565b7f0a00000000000000000000000000000000000000000000000000000000000000600082015250565b6000610e65600183610d26565b9150610e7082610e2f565b600182019050919050565b7f416464726573733a200000000000000000000000000000000000000000000000600082015250565b6000610eb1600983610d26565b9150610ebc82610e7b565b600982019050919050565b7f53746174656d656e743a20000000000000000000000000000000000000000000600082015250565b6000610efd600b83610d26565b9150610f0882610ec7565b600b82019050919050565b7f5552493a20000000000000000000000000000000000000000000000000000000600082015250565b6000610f49600583610d26565b9150610f5482610f13565b600582019050919050565b7f56657273696f6e3a20310a000000000000000000000000000000000000000000600082015250565b6000610f95600b83610d26565b9150610fa082610f5f565b600b82019050919050565b7f436861696e2049443a2000000000000000000000000000000000000000000000600082015250565b6000610fe1600a83610d26565b9150610fec82610fab565b600a82019050919050565b7f4e6f6e63653a2000000000000000000000000000000000000000000000000000600082015250565b600061102d600783610d26565b915061103882610ff7565b600782019050919050565b600061104e82610d5a565b915061105982610da6565b91506110658289610dfe565b915061107082610e58565b915061107b82610ea4565b91506110878288610dfe565b915061109282610e58565b915061109d82610ef0565b91506110a98287610dfe565b91506110b482610e58565b91506110bf82610f3c565b91506110cb8286610dfe565b91506110d682610e58565b91506110e182610f88565b91506110ec82610fd4565b91506110f88285610dfe565b915061110382610e58565b915061110e82611020565b915061111a8284610dfe565b9150819050979650505050505050565b7f19457468657265756d205369676e6564204d6573736167653a0a333200000000600082015250565b6000611160601c83610d26565b915061116b8261112a565b601c82019050919050565b6000819050919050565b61119161118c82610b93565b611176565b82525050565b60006111a282611153565b91506111ae8284611180565b60208201915081905092915050565b7f4e487b7100000000000000000000000000000000000000000000000000000000600052601160045260246000fd5b60006111f782610a7c565b915061120283610a7c565b925082820261121081610a7c565b91508282048414831517611227576112266111bd565b5b5092915050565b600061123982610a7c565b915061124483610a7c565b925082820190508082111561125c5761125b6111bd565b5b92915050565b7f4e487b7100000000000000000000000000000000000000000000000000000000600052603260045260246000fd5b600061129c82610a7c565b9150600082036112af576112ae6111bd565b5b600182039050919050565b6112c381610a7c565b82525050565b60006040820190506112de60008301856112ba565b6112eb60208301846112ba565b9392505050565b7f4e487b7100000000000000000000000000000000000000000000000000000000600052601260045260246000fd5b7f4e487b7100000000000000000000000000000000000000000000000000000000600052602160045260246000fd5b600060208201905061136560008301846112ba565b92915050565b600060ff82169050919050565b6113818161136b565b82525050565b600060808201905061139c6000830187610b9d565b6113a96020830186611378565b6113b66040830185610b9d565b6113c36060830184610b9d565b9594505050505056fea2646970667358221220e38ecdbd8e7bb9e2d3894a0ee70239ff661cbaab2488dc1b6ab77bb1f80b969964736f6c634300081b0033","opcodes":"PUSH1 0x80 PUSH1 0x40 MSTORE CALLVALUE DUP1 ISZERO PUSH1 0xF JUMPI PUSH1 0x0 DUP1 REVERT JUMPDEST POP PUSH2 0x1402 DUP1 PUSH2 0x1F PUSH1 0x0 CODECOPY PUSH1 0x0 RETURN INVALID PUSH1 0x80 PUSH1 0x40 MSTORE CALLVALUE DUP1 ISZERO PUSH2 0x10 JUMPI PUSH1 0x0 DUP1 REVERT JUMPDEST POP PUSH1 0x4 CALLDATASIZE LT PUSH2 0x36 JUMPI PUSH1 0x0 CALLDATALOAD PUSH1 0xE0 SHR DUP1 PUSH4 0x5FBCC155 EQ PUSH2 0x3B JUMPI DUP1 PUSH4 0xDACA6F78 EQ PUSH2 0x6B JUMPI JUMPDEST PUSH1 0x0 DUP1 REVERT JUMPDEST PUSH2 0x55 PUSH1 0x4 DUP1 CALLDATASIZE SUB DUP2 ADD SWAP1 PUSH2 0x50 SWAP2 SWAP1 PUSH2 0xAB2 JUMP JUMPDEST PUSH2 0x9B JUMP JUMPDEST PUSH1 0x40 MLOAD PUSH2 0x62 SWAP2 SWAP1 PUSH2 0xBAC JUMP JUMPDEST PUSH1 0x40 MLOAD DUP1 SWAP2 SUB SWAP1 RETURN JUMPDEST PUSH2 0x85 PUSH1 0x4 DUP1 CALLDATASIZE SUB DUP2 ADD SWAP1 PUSH2 0x80 SWAP2 SWAP1 PUSH2 0xC94 JUMP JUMPDEST PUSH2 0x10A JUMP JUMPDEST PUSH1 0x40 MLOAD PUSH2 0x92 SWAP2 SWAP1 PUSH2 0xD0B JUMP JUMPDEST PUSH1 0x40 MLOAD DUP1 SWAP2 SUB SWAP1 RETURN JUMPDEST PUSH1 0x0 DUP6 PUSH2 0xBF DUP9 PUSH20 0xFFFFFFFFFFFFFFFFFFFFFFFFFFFFFFFFFFFFFFFF AND PUSH1 0x14 PUSH2 0x17D JUMP JUMPDEST DUP7 DUP7 PUSH2 0xCA DUP8 PUSH2 0x3C3 JUMP JUMPDEST PUSH2 0xD3 DUP8 PUSH2 0x3C3 JUMP JUMPDEST PUSH1 0x40 MLOAD PUSH1 0x20 ADD PUSH2 0xE8 SWAP7 SWAP6 SWAP5 SWAP4 SWAP3 SWAP2 SWAP1 PUSH2 0x1043 JUMP JUMPDEST PUSH1 0x40 MLOAD PUSH1 0x20 DUP2 DUP4 SUB SUB DUP2 MSTORE SWAP1 PUSH1 0x40 MSTORE DUP1 MLOAD SWAP1 PUSH1 0x20 ADD KECCAK256 SWAP1 POP SWAP7 SWAP6 POP POP POP POP POP POP JUMP JUMPDEST PUSH1 0x0 DUP1 DUP4 PUSH1 0x40 MLOAD PUSH1 0x20 ADD PUSH2 0x11E SWAP2 SWAP1 PUSH2 0x1197 JUMP JUMPDEST PUSH1 0x40 MLOAD PUSH1 0x20 DUP2 DUP4 SUB SUB DUP2 MSTORE SWAP1 PUSH1 0x40 MSTORE DUP1 MLOAD SWAP1 PUSH1 0x20 ADD KECCAK256 SWAP1 POP PUSH1 0x0 PUSH2 0x142 DUP3 DUP6 PUSH2 0x491 JUMP JUMPDEST SWAP1 POP CALLER PUSH20 0xFFFFFFFFFFFFFFFFFFFFFFFFFFFFFFFFFFFFFFFF AND DUP2 PUSH20 0xFFFFFFFFFFFFFFFFFFFFFFFFFFFFFFFFFFFFFFFF AND EQ SWAP3 POP POP POP SWAP3 SWAP2 POP POP JUMP JUMPDEST PUSH1 0x60 PUSH1 0x0 DUP4 SWAP1 POP PUSH1 0x0 PUSH1 0x2 DUP5 PUSH1 0x2 PUSH2 0x195 SWAP2 SWAP1 PUSH2 0x11EC JUMP JUMPDEST PUSH2 0x19F SWAP2 SWAP1 PUSH2 0x122E JUMP JUMPDEST PUSH8 0xFFFFFFFFFFFFFFFF DUP2 GT ISZERO PUSH2 0x1B8 JUMPI PUSH2 0x1B7 PUSH2 0x951 JUMP JUMPDEST JUMPDEST PUSH1 0x40 MLOAD SWAP1 DUP1 DUP3 MSTORE DUP1 PUSH1 0x1F ADD PUSH1 0x1F NOT AND PUSH1 0x20 ADD DUP3 ADD PUSH1 0x40 MSTORE DUP1 ISZERO PUSH2 0x1EA JUMPI DUP2 PUSH1 0x20 ADD PUSH1 0x1 DUP3 MUL DUP1 CALLDATASIZE DUP4 CALLDATACOPY DUP1 DUP3 ADD SWAP2 POP POP SWAP1 POP JUMPDEST POP SWAP1 POP PUSH32 0x3000000000000000000000000000000000000000000000000000000000000000 DUP2 PUSH1 0x0 DUP2 MLOAD DUP2 LT PUSH2 0x222 JUMPI PUSH2 0x221 PUSH2 0x1262 JUMP JUMPDEST JUMPDEST PUSH1 0x20 ADD ADD SWAP1 PUSH31 0xFFFFFFFFFFFFFFFFFFFFFFFFFFFFFFFFFFFFFFFFFFFFFFFFFFFFFFFFFFFFFF NOT AND SWAP1 DUP2 PUSH1 0x0 BYTE SWAP1 MSTORE8 POP PUSH32 0x7800000000000000000000000000000000000000000000000000000000000000 DUP2 PUSH1 0x1 DUP2 MLOAD DUP2 LT PUSH2 0x286 JUMPI PUSH2 0x285 PUSH2 0x1262 JUMP JUMPDEST JUMPDEST PUSH1 0x20 ADD ADD SWAP1 PUSH31 0xFFFFFFFFFFFFFFFFFFFFFFFFFFFFFFFFFFFFFFFFFFFFFFFFFFFFFFFFFFFFFF NOT AND SWAP1 DUP2 PUSH1 0x0 BYTE SWAP1 MSTORE8 POP PUSH1 0x0 PUSH1 0x1 DUP6 PUSH1 0x2 PUSH2 0x2C6 SWAP2 SWAP1 PUSH2 0x11EC JUMP JUMPDEST PUSH2 0x2D0 SWAP2 SWAP1 PUSH2 0x122E JUMP JUMPDEST SWAP1 POP JUMPDEST PUSH1 0x1 DUP2 GT ISZERO PUSH2 0x370 JUMPI PUSH32 0x3031323334353637383961626364656600000000000000000000000000000000 PUSH1 0xF DUP5 AND PUSH1 0x10 DUP2 LT PUSH2 0x312 JUMPI PUSH2 0x311 PUSH2 0x1262 JUMP JUMPDEST JUMPDEST BYTE PUSH1 0xF8 SHL DUP3 DUP3 DUP2 MLOAD DUP2 LT PUSH2 0x329 JUMPI PUSH2 0x328 PUSH2 0x1262 JUMP JUMPDEST JUMPDEST PUSH1 0x20 ADD ADD SWAP1 PUSH31 0xFFFFFFFFFFFFFFFFFFFFFFFFFFFFFFFFFFFFFFFFFFFFFFFFFFFFFFFFFFFFFF NOT AND SWAP1 DUP2 PUSH1 0x0 BYTE SWAP1 MSTORE8 POP PUSH1 0x4 DUP4 SWAP1 SHR SWAP3 POP DUP1 PUSH2 0x369 SWAP1 PUSH2 0x1291 JUMP JUMPDEST SWAP1 POP PUSH2 0x2D3 JUMP JUMPDEST POP PUSH1 0x0 DUP3 EQ PUSH2 0x3B8 JUMPI DUP5 DUP5 PUSH1 0x40 MLOAD PUSH32 0xE22E27EB00000000000000000000000000000000000000000000000000000000 DUP2 MSTORE PUSH1 0x4 ADD PUSH2 0x3AF SWAP3 SWAP2 SWAP1 PUSH2 0x12C9 JUMP JUMPDEST PUSH1 0x40 MLOAD DUP1 SWAP2 SUB SWAP1 REVERT JUMPDEST DUP1 SWAP3 POP POP POP SWAP3 SWAP2 POP POP JUMP JUMPDEST PUSH1 0x60 PUSH1 0x0 PUSH1 0x1 PUSH2 0x3D2 DUP5 PUSH2 0x4BD JUMP JUMPDEST ADD SWAP1 POP PUSH1 0x0 DUP2 PUSH8 0xFFFFFFFFFFFFFFFF DUP2 GT ISZERO PUSH2 0x3F1 JUMPI PUSH2 0x3F0 PUSH2 0x951 JUMP JUMPDEST JUMPDEST PUSH1 0x40 MLOAD SWAP1 DUP1 DUP3 MSTORE DUP1 PUSH1 0x1F ADD PUSH1 0x1F NOT AND PUSH1 0x20 ADD DUP3 ADD PUSH1 0x40 MSTORE DUP1 ISZERO PUSH2 0x423 JUMPI DUP2 PUSH1 0x20 ADD PUSH1 0x1 DUP3 MUL DUP1 CALLDATASIZE DUP4 CALLDATACOPY DUP1 DUP3 ADD SWAP2 POP POP SWAP1 POP JUMPDEST POP SWAP1 POP PUSH1 0x0 DUP3 PUSH1 0x20 ADD DUP3 ADD SWAP1 POP JUMPDEST PUSH1 0x1 ISZERO PUSH2 0x486 JUMPI DUP1 DUP1 PUSH1 0x1 SWAP1 SUB SWAP2 POP POP PUSH32 0x3031323334353637383961626364656600000000000000000000000000000000 PUSH1 0xA DUP7 MOD BYTE DUP2 MSTORE8 PUSH1 0xA DUP6 DUP2 PUSH2 0x47A JUMPI PUSH2 0x479 PUSH2 0x12F2 JUMP JUMPDEST JUMPDEST DIV SWAP5 POP PUSH1 0x0 DUP6 SUB PUSH2 0x431 JUMPI JUMPDEST DUP2 SWAP4 POP POP POP POP SWAP2 SWAP1 POP JUMP JUMPDEST PUSH1 0x0 DUP1 PUSH1 0x0 DUP1 PUSH2 0x4A1 DUP7 DUP7 PUSH2 0x610 JUMP JUMPDEST SWAP3 POP SWAP3 POP SWAP3 POP PUSH2 0x4B1 DUP3 DUP3 PUSH2 0x66C JUMP JUMPDEST DUP3 SWAP4 POP POP POP POP SWAP3 SWAP2 POP POP JUMP JUMPDEST PUSH1 0x0 DUP1 PUSH1 0x0 SWAP1 POP PUSH27 0x184F03E93FF9F4DAA797ED6E38ED64BF6A1F010000000000000000 DUP4 LT PUSH2 0x51B JUMPI PUSH27 0x184F03E93FF9F4DAA797ED6E38ED64BF6A1F010000000000000000 DUP4 DUP2 PUSH2 0x511 JUMPI PUSH2 0x510 PUSH2 0x12F2 JUMP JUMPDEST JUMPDEST DIV SWAP3 POP PUSH1 0x40 DUP2 ADD SWAP1 POP JUMPDEST PUSH14 0x4EE2D6D415B85ACEF8100000000 DUP4 LT PUSH2 0x558 JUMPI PUSH14 0x4EE2D6D415B85ACEF8100000000 DUP4 DUP2 PUSH2 0x54E JUMPI PUSH2 0x54D PUSH2 0x12F2 JUMP JUMPDEST JUMPDEST DIV SWAP3 POP PUSH1 0x20 DUP2 ADD SWAP1 POP JUMPDEST PUSH7 0x2386F26FC10000 DUP4 LT PUSH2 0x587 JUMPI PUSH7 0x2386F26FC10000 DUP4 DUP2 PUSH2 0x57D JUMPI PUSH2 0x57C PUSH2 0x12F2 JUMP JUMPDEST JUMPDEST DIV SWAP3 POP PUSH1 0x10 DUP2 ADD SWAP1 POP JUMPDEST PUSH4 0x5F5E100 DUP4 LT PUSH2 0x5B0 JUMPI PUSH4 0x5F5E100 DUP4 DUP2 PUSH2 0x5A6 JUMPI PUSH2 0x5A5 PUSH2 0x12F2 JUMP JUMPDEST JUMPDEST DIV SWAP3 POP PUSH1 0x8 DUP2 ADD SWAP1 POP JUMPDEST PUSH2 0x2710 DUP4 LT PUSH2 0x5D5 JUMPI PUSH2 0x2710 DUP4 DUP2 PUSH2 0x5CB JUMPI PUSH2 0x5CA PUSH2 0x12F2 JUMP JUMPDEST JUMPDEST DIV SWAP3 POP PUSH1 0x4 DUP2 ADD SWAP1 POP JUMPDEST PUSH1 0x64 DUP4 LT PUSH2 0x5F8 JUMPI PUSH1 0x64 DUP4 DUP2 PUSH2 0x5EE JUMPI PUSH2 0x5ED PUSH2 0x12F2 JUMP JUMPDEST JUMPDEST DIV SWAP3 POP PUSH1 0x2 DUP2 ADD SWAP1 POP JUMPDEST PUSH1 0xA DUP4 LT PUSH2 0x607 JUMPI PUSH1 0x1 DUP2 ADD SWAP1 POP JUMPDEST DUP1 SWAP2 POP POP SWAP2 SWAP1 POP JUMP JUMPDEST PUSH1 0x0 DUP1 PUSH1 0x0 PUSH1 0x41 DUP5 MLOAD SUB PUSH2 0x655 JUMPI PUSH1 0x0 DUP1 PUSH1 0x0 PUSH1 0x20 DUP8 ADD MLOAD SWAP3 POP PUSH1 0x40 DUP8 ADD MLOAD SWAP2 POP PUSH1 0x60 DUP8 ADD MLOAD PUSH1 0x0 BYTE SWAP1 POP PUSH2 0x647 DUP9 DUP3 DUP6 DUP6 PUSH2 0x7D0 JUMP JUMPDEST SWAP6 POP SWAP6 POP SWAP6 POP POP POP POP PUSH2 0x665 JUMP JUMPDEST PUSH1 0x0 PUSH1 0x2 DUP6 MLOAD PUSH1 0x0 SHL SWAP3 POP SWAP3 POP SWAP3 POP JUMPDEST SWAP3 POP SWAP3 POP SWAP3 JUMP JUMPDEST PUSH1 0x0 PUSH1 0x3 DUP2 GT ISZERO PUSH2 0x680 JUMPI PUSH2 0x67F PUSH2 0x1321 JUMP JUMPDEST JUMPDEST DUP3 PUSH1 0x3 DUP2 GT ISZERO PUSH2 0x693 JUMPI PUSH2 0x692 PUSH2 0x1321 JUMP JUMPDEST JUMPDEST SUB ISZERO PUSH2 0x7CC JUMPI PUSH1 0x1 PUSH1 0x3 DUP2 GT ISZERO PUSH2 0x6AD JUMPI PUSH2 0x6AC PUSH2 0x1321 JUMP JUMPDEST JUMPDEST DUP3 PUSH1 0x3 DUP2 GT ISZERO PUSH2 0x6C0 JUMPI PUSH2 0x6BF PUSH2 0x1321 JUMP JUMPDEST JUMPDEST SUB PUSH2 0x6F7 JUMPI PUSH1 0x40 MLOAD PUSH32 0xF645EEDF00000000000000000000000000000000000000000000000000000000 DUP2 MSTORE PUSH1 0x4 ADD PUSH1 0x40 MLOAD DUP1 SWAP2 SUB SWAP1 REVERT JUMPDEST PUSH1 0x2 PUSH1 0x3 DUP2 GT ISZERO PUSH2 0x70B JUMPI PUSH2 0x70A PUSH2 0x1321 JUMP JUMPDEST JUMPDEST DUP3 PUSH1 0x3 DUP2 GT ISZERO PUSH2 0x71E JUMPI PUSH2 0x71D PUSH2 0x1321 JUMP JUMPDEST JUMPDEST SUB PUSH2 0x763 JUMPI DUP1 PUSH1 0x0 SHR PUSH1 0x40 MLOAD PUSH32 0xFCE698F700000000000000000000000000000000000000000000000000000000 DUP2 MSTORE PUSH1 0x4 ADD PUSH2 0x75A SWAP2 SWAP1 PUSH2 0x1350 JUMP JUMPDEST PUSH1 0x40 MLOAD DUP1 SWAP2 SUB SWAP1 REVERT JUMPDEST PUSH1 0x3 DUP1 DUP2 GT ISZERO PUSH2 0x776 JUMPI PUSH2 0x775 PUSH2 0x1321 JUMP JUMPDEST JUMPDEST DUP3 PUSH1 0x3 DUP2 GT ISZERO PUSH2 0x789 JUMPI PUSH2 0x788 PUSH2 0x1321 JUMP JUMPDEST JUMPDEST SUB PUSH2 0x7CB JUMPI DUP1 PUSH1 0x40 MLOAD PUSH32 0xD78BCE0C00000000000000000000000000000000000000000000000000000000 DUP2 MSTORE PUSH1 0x4 ADD PUSH2 0x7C2 SWAP2 SWAP1 PUSH2 0xBAC JUMP JUMPDEST PUSH1 0x40 MLOAD DUP1 SWAP2 SUB SWAP1 REVERT JUMPDEST JUMPDEST POP POP JUMP JUMPDEST PUSH1 0x0 DUP1 PUSH1 0x0 PUSH32 0x7FFFFFFFFFFFFFFFFFFFFFFFFFFFFFFF5D576E7357A4501DDFE92F46681B20A0 DUP5 PUSH1 0x0 SHR GT ISZERO PUSH2 0x810 JUMPI PUSH1 0x0 PUSH1 0x3 DUP6 SWAP3 POP SWAP3 POP SWAP3 POP PUSH2 0x8BA JUMP JUMPDEST PUSH1 0x0 PUSH1 0x1 DUP9 DUP9 DUP9 DUP9 PUSH1 0x40 MLOAD PUSH1 0x0 DUP2 MSTORE PUSH1 0x20 ADD PUSH1 0x40 MSTORE PUSH1 0x40 MLOAD PUSH2 0x835 SWAP5 SWAP4 SWAP3 SWAP2 SWAP1 PUSH2 0x1387 JUMP JUMPDEST PUSH1 0x20 PUSH1 0x40 MLOAD PUSH1 0x20 DUP2 SUB SWAP1 DUP1 DUP5 SUB SWAP1 DUP6 GAS STATICCALL ISZERO DUP1 ISZERO PUSH2 0x857 JUMPI RETURNDATASIZE PUSH1 0x0 DUP1 RETURNDATACOPY RETURNDATASIZE PUSH1 0x0 REVERT JUMPDEST POP POP POP PUSH1 0x20 PUSH1 0x40 MLOAD SUB MLOAD SWAP1 POP PUSH1 0x0 PUSH20 0xFFFFFFFFFFFFFFFFFFFFFFFFFFFFFFFFFFFFFFFF AND DUP2 PUSH20 0xFFFFFFFFFFFFFFFFFFFFFFFFFFFFFFFFFFFFFFFF AND SUB PUSH2 0x8AB JUMPI PUSH1 0x0 PUSH1 0x1 PUSH1 0x0 DUP1 SHL SWAP4 POP SWAP4 POP SWAP4 POP POP PUSH2 0x8BA JUMP JUMPDEST DUP1 PUSH1 0x0 DUP1 PUSH1 0x0 SHL SWAP4 POP SWAP4 POP SWAP4 POP POP JUMPDEST SWAP5 POP SWAP5 POP SWAP5 SWAP2 POP POP JUMP JUMPDEST PUSH1 0x0 PUSH1 0x40 MLOAD SWAP1 POP SWAP1 JUMP JUMPDEST PUSH1 0x0 DUP1 REVERT JUMPDEST PUSH1 0x0 DUP1 REVERT JUMPDEST PUSH1 0x0 PUSH20 0xFFFFFFFFFFFFFFFFFFFFFFFFFFFFFFFFFFFFFFFF DUP3 AND SWAP1 POP SWAP2 SWAP1 POP JUMP JUMPDEST PUSH1 0x0 PUSH2 0x903 DUP3 PUSH2 0x8D8 JUMP JUMPDEST SWAP1 POP SWAP2 SWAP1 POP JUMP JUMPDEST PUSH2 0x913 DUP2 PUSH2 0x8F8 JUMP JUMPDEST DUP2 EQ PUSH2 0x91E JUMPI PUSH1 0x0 DUP1 REVERT JUMPDEST POP JUMP JUMPDEST PUSH1 0x0 DUP2 CALLDATALOAD SWAP1 POP PUSH2 0x930 DUP2 PUSH2 0x90A JUMP JUMPDEST SWAP3 SWAP2 POP POP JUMP JUMPDEST PUSH1 0x0 DUP1 REVERT JUMPDEST PUSH1 0x0 DUP1 REVERT JUMPDEST PUSH1 0x0 PUSH1 0x1F NOT PUSH1 0x1F DUP4 ADD AND SWAP1 POP SWAP2 SWAP1 POP JUMP JUMPDEST PUSH32 0x4E487B7100000000000000000000000000000000000000000000000000000000 PUSH1 0x0 MSTORE PUSH1 0x41 PUSH1 0x4 MSTORE PUSH1 0x24 PUSH1 0x0 REVERT JUMPDEST PUSH2 0x989 DUP3 PUSH2 0x940 JUMP JUMPDEST DUP2 ADD DUP2 DUP2 LT PUSH8 0xFFFFFFFFFFFFFFFF DUP3 GT OR ISZERO PUSH2 0x9A8 JUMPI PUSH2 0x9A7 PUSH2 0x951 JUMP JUMPDEST JUMPDEST DUP1 PUSH1 0x40 MSTORE POP POP POP JUMP JUMPDEST PUSH1 0x0 PUSH2 0x9BB PUSH2 0x8C4 JUMP JUMPDEST SWAP1 POP PUSH2 0x9C7 DUP3 DUP3 PUSH2 0x980 JUMP JUMPDEST SWAP2 SWAP1 POP JUMP JUMPDEST PUSH1 0x0 PUSH8 0xFFFFFFFFFFFFFFFF DUP3 GT ISZERO PUSH2 0x9E7 JUMPI PUSH2 0x9E6 PUSH2 0x951 JUMP JUMPDEST JUMPDEST PUSH2 0x9F0 DUP3 PUSH2 0x940 JUMP JUMPDEST SWAP1 POP PUSH1 0x20 DUP2 ADD SWAP1 POP SWAP2 SWAP1 POP JUMP JUMPDEST DUP3 DUP2 DUP4 CALLDATACOPY PUSH1 0x0 DUP4 DUP4 ADD MSTORE POP POP POP JUMP JUMPDEST PUSH1 0x0 PUSH2 0xA1F PUSH2 0xA1A DUP5 PUSH2 0x9CC JUMP JUMPDEST PUSH2 0x9B1 JUMP JUMPDEST SWAP1 POP DUP3 DUP2 MSTORE PUSH1 0x20 DUP2 ADD DUP5 DUP5 DUP5 ADD GT ISZERO PUSH2 0xA3B JUMPI PUSH2 0xA3A PUSH2 0x93B JUMP JUMPDEST JUMPDEST PUSH2 0xA46 DUP5 DUP3 DUP6 PUSH2 0x9FD JUMP JUMPDEST POP SWAP4 SWAP3 POP POP POP JUMP JUMPDEST PUSH1 0x0 DUP3 PUSH1 0x1F DUP4 ADD SLT PUSH2 0xA63 JUMPI PUSH2 0xA62 PUSH2 0x936 JUMP JUMPDEST JUMPDEST DUP2 CALLDATALOAD PUSH2 0xA73 DUP5 DUP3 PUSH1 0x20 DUP7 ADD PUSH2 0xA0C JUMP JUMPDEST SWAP2 POP POP SWAP3 SWAP2 POP POP JUMP JUMPDEST PUSH1 0x0 DUP2 SWAP1 POP SWAP2 SWAP1 POP JUMP JUMPDEST PUSH2 0xA8F DUP2 PUSH2 0xA7C JUMP JUMPDEST DUP2 EQ PUSH2 0xA9A JUMPI PUSH1 0x0 DUP1 REVERT JUMPDEST POP JUMP JUMPDEST PUSH1 0x0 DUP2 CALLDATALOAD SWAP1 POP PUSH2 0xAAC DUP2 PUSH2 0xA86 JUMP JUMPDEST SWAP3 SWAP2 POP POP JUMP JUMPDEST PUSH1 0x0 DUP1 PUSH1 0x0 DUP1 PUSH1 0x0 DUP1 PUSH1 0xC0 DUP8 DUP10 SUB SLT ISZERO PUSH2 0xACF JUMPI PUSH2 0xACE PUSH2 0x8CE JUMP JUMPDEST JUMPDEST PUSH1 0x0 PUSH2 0xADD DUP10 DUP3 DUP11 ADD PUSH2 0x921 JUMP JUMPDEST SWAP7 POP POP PUSH1 0x20 DUP8 ADD CALLDATALOAD PUSH8 0xFFFFFFFFFFFFFFFF DUP2 GT ISZERO PUSH2 0xAFE JUMPI PUSH2 0xAFD PUSH2 0x8D3 JUMP JUMPDEST JUMPDEST PUSH2 0xB0A DUP10 DUP3 DUP11 ADD PUSH2 0xA4E JUMP JUMPDEST SWAP6 POP POP PUSH1 0x40 DUP8 ADD CALLDATALOAD PUSH8 0xFFFFFFFFFFFFFFFF DUP2 GT ISZERO PUSH2 0xB2B JUMPI PUSH2 0xB2A PUSH2 0x8D3 JUMP JUMPDEST JUMPDEST PUSH2 0xB37 DUP10 DUP3 DUP11 ADD PUSH2 0xA4E JUMP JUMPDEST SWAP5 POP POP PUSH1 0x60 DUP8 ADD CALLDATALOAD PUSH8 0xFFFFFFFFFFFFFFFF DUP2 GT ISZERO PUSH2 0xB58 JUMPI PUSH2 0xB57 PUSH2 0x8D3 JUMP JUMPDEST JUMPDEST PUSH2 0xB64 DUP10 DUP3 DUP11 ADD PUSH2 0xA4E JUMP JUMPDEST SWAP4 POP POP PUSH1 0x80 PUSH2 0xB75 DUP10 DUP3 DUP11 ADD PUSH2 0xA9D JUMP JUMPDEST SWAP3 POP POP PUSH1 0xA0 PUSH2 0xB86 DUP10 DUP3 DUP11 ADD PUSH2 0xA9D JUMP JUMPDEST SWAP2 POP POP SWAP3 SWAP6 POP SWAP3 SWAP6 POP SWAP3 SWAP6 JUMP JUMPDEST PUSH1 0x0 DUP2 SWAP1 POP SWAP2 SWAP1 POP JUMP JUMPDEST PUSH2 0xBA6 DUP2 PUSH2 0xB93 JUMP JUMPDEST DUP3 MSTORE POP POP JUMP JUMPDEST PUSH1 0x0 PUSH1 0x20 DUP3 ADD SWAP1 POP PUSH2 0xBC1 PUSH1 0x0 DUP4 ADD DUP5 PUSH2 0xB9D JUMP JUMPDEST SWAP3 SWAP2 POP POP JUMP JUMPDEST PUSH2 0xBD0 DUP2 PUSH2 0xB93 JUMP JUMPDEST DUP2 EQ PUSH2 0xBDB JUMPI PUSH1 0x0 DUP1 REVERT JUMPDEST POP JUMP JUMPDEST PUSH1 0x0 DUP2 CALLDATALOAD SWAP1 POP PUSH2 0xBED DUP2 PUSH2 0xBC7 JUMP JUMPDEST SWAP3 SWAP2 POP POP JUMP JUMPDEST PUSH1 0x0 PUSH8 0xFFFFFFFFFFFFFFFF DUP3 GT ISZERO PUSH2 0xC0E JUMPI PUSH2 0xC0D PUSH2 0x951 JUMP JUMPDEST JUMPDEST PUSH2 0xC17 DUP3 PUSH2 0x940 JUMP JUMPDEST SWAP1 POP PUSH1 0x20 DUP2 ADD SWAP1 POP SWAP2 SWAP1 POP JUMP JUMPDEST PUSH1 0x0 PUSH2 0xC37 PUSH2 0xC32 DUP5 PUSH2 0xBF3 JUMP JUMPDEST PUSH2 0x9B1 JUMP JUMPDEST SWAP1 POP DUP3 DUP2 MSTORE PUSH1 0x20 DUP2 ADD DUP5 DUP5 DUP5 ADD GT ISZERO PUSH2 0xC53 JUMPI PUSH2 0xC52 PUSH2 0x93B JUMP JUMPDEST JUMPDEST PUSH2 0xC5E DUP5 DUP3 DUP6 PUSH2 0x9FD JUMP JUMPDEST POP SWAP4 SWAP3 POP POP POP JUMP JUMPDEST PUSH1 0x0 DUP3 PUSH1 0x1F DUP4 ADD SLT PUSH2 0xC7B JUMPI PUSH2 0xC7A PUSH2 0x936 JUMP JUMPDEST JUMPDEST DUP2 CALLDATALOAD PUSH2 0xC8B DUP5 DUP3 PUSH1 0x20 DUP7 ADD PUSH2 0xC24 JUMP JUMPDEST SWAP2 POP POP SWAP3 SWAP2 POP POP JUMP JUMPDEST PUSH1 0x0 DUP1 PUSH1 0x40 DUP4 DUP6 SUB SLT ISZERO PUSH2 0xCAB JUMPI PUSH2 0xCAA PUSH2 0x8CE JUMP JUMPDEST JUMPDEST PUSH1 0x0 PUSH2 0xCB9 DUP6 DUP3 DUP7 ADD PUSH2 0xBDE JUMP JUMPDEST SWAP3 POP POP PUSH1 0x20 DUP4 ADD CALLDATALOAD PUSH8 0xFFFFFFFFFFFFFFFF DUP2 GT ISZERO PUSH2 0xCDA JUMPI PUSH2 0xCD9 PUSH2 0x8D3 JUMP JUMPDEST JUMPDEST PUSH2 0xCE6 DUP6 DUP3 DUP7 ADD PUSH2 0xC66 JUMP JUMPDEST SWAP2 POP POP SWAP3 POP SWAP3 SWAP1 POP JUMP JUMPDEST PUSH1 0x0 DUP2 ISZERO ISZERO SWAP1 POP SWAP2 SWAP1 POP JUMP JUMPDEST PUSH2 0xD05 DUP2 PUSH2 0xCF0 JUMP JUMPDEST DUP3 MSTORE POP POP JUMP JUMPDEST PUSH1 0x0 PUSH1 0x20 DUP3 ADD SWAP1 POP PUSH2 0xD20 PUSH1 0x0 DUP4 ADD DUP5 PUSH2 0xCFC JUMP JUMPDEST SWAP3 SWAP2 POP POP JUMP JUMPDEST PUSH1 0x0 DUP2 SWAP1 POP SWAP3 SWAP2 POP POP JUMP JUMPDEST PUSH32 0x19457468657265756D205369676E6564204D6573736167653A0A000000000000 PUSH1 0x0 DUP3 ADD MSTORE POP JUMP JUMPDEST PUSH1 0x0 PUSH2 0xD67 PUSH1 0x1A DUP4 PUSH2 0xD26 JUMP JUMPDEST SWAP2 POP PUSH2 0xD72 DUP3 PUSH2 0xD31 JUMP JUMPDEST PUSH1 0x1A DUP3 ADD SWAP1 POP SWAP2 SWAP1 POP JUMP JUMPDEST PUSH32 0x446F6D61696E3A20000000000000000000000000000000000000000000000000 PUSH1 0x0 DUP3 ADD MSTORE POP JUMP JUMPDEST PUSH1 0x0 PUSH2 0xDB3 PUSH1 0x8 DUP4 PUSH2 0xD26 JUMP JUMPDEST SWAP2 POP PUSH2 0xDBE DUP3 PUSH2 0xD7D JUMP JUMPDEST PUSH1 0x8 DUP3 ADD SWAP1 POP SWAP2 SWAP1 POP JUMP JUMPDEST PUSH1 0x0 DUP2 MLOAD SWAP1 POP SWAP2 SWAP1 POP JUMP JUMPDEST PUSH1 0x0 JUMPDEST DUP4 DUP2 LT ISZERO PUSH2 0xDF2 JUMPI DUP1 DUP3 ADD MLOAD DUP2 DUP5 ADD MSTORE PUSH1 0x20 DUP2 ADD SWAP1 POP PUSH2 0xDD7 JUMP JUMPDEST PUSH1 0x0 DUP5 DUP5 ADD MSTORE POP POP POP POP JUMP JUMPDEST PUSH1 0x0 PUSH2 0xE09 DUP3 PUSH2 0xDC9 JUMP JUMPDEST PUSH2 0xE13 DUP2 DUP6 PUSH2 0xD26 JUMP JUMPDEST SWAP4 POP PUSH2 0xE23 DUP2 DUP6 PUSH1 0x20 DUP7 ADD PUSH2 0xDD4 JUMP JUMPDEST DUP1 DUP5 ADD SWAP2 POP POP SWAP3 SWAP2 POP POP JUMP JUMPDEST PUSH32 0xA00000000000000000000000000000000000000000000000000000000000000 PUSH1 0x0 DUP3 ADD MSTORE POP JUMP JUMPDEST PUSH1 0x0 PUSH2 0xE65 PUSH1 0x1 DUP4 PUSH2 0xD26 JUMP JUMPDEST SWAP2 POP PUSH2 0xE70 DUP3 PUSH2 0xE2F JUMP JUMPDEST PUSH1 0x1 DUP3 ADD SWAP1 POP SWAP2 SWAP1 POP JUMP JUMPDEST PUSH32 0x416464726573733A200000000000000000000000000000000000000000000000 PUSH1 0x0 DUP3 ADD MSTORE POP JUMP JUMPDEST PUSH1 0x0 PUSH2 0xEB1 PUSH1 0x9 DUP4 PUSH2 0xD26 JUMP JUMPDEST SWAP2 POP PUSH2 0xEBC DUP3 PUSH2 0xE7B JUMP JUMPDEST PUSH1 0x9 DUP3 ADD SWAP1 POP SWAP2 SWAP1 POP JUMP JUMPDEST PUSH32 0x53746174656D656E743A20000000000000000000000000000000000000000000 PUSH1 0x0 DUP3 ADD MSTORE POP JUMP JUMPDEST PUSH1 0x0 PUSH2 0xEFD PUSH1 0xB DUP4 PUSH2 0xD26 JUMP JUMPDEST SWAP2 POP PUSH2 0xF08 DUP3 PUSH2 0xEC7 JUMP JUMPDEST PUSH1 0xB DUP3 ADD SWAP1 POP SWAP2 SWAP1 POP JUMP JUMPDEST PUSH32 0x5552493A20000000000000000000000000000000000000000000000000000000 PUSH1 0x0 DUP3 ADD MSTORE POP JUMP JUMPDEST PUSH1 0x0 PUSH2 0xF49 PUSH1 0x5 DUP4 PUSH2 0xD26 JUMP JUMPDEST SWAP2 POP PUSH2 0xF54 DUP3 PUSH2 0xF13 JUMP JUMPDEST PUSH1 0x5 DUP3 ADD SWAP1 POP SWAP2 SWAP1 POP JUMP JUMPDEST PUSH32 0x56657273696F6E3A20310A000000000000000000000000000000000000000000 PUSH1 0x0 DUP3 ADD MSTORE POP JUMP JUMPDEST PUSH1 0x0 PUSH2 0xF95 PUSH1 0xB DUP4 PUSH2 0xD26 JUMP JUMPDEST SWAP2 POP PUSH2 0xFA0 DUP3 PUSH2 0xF5F JUMP JUMPDEST PUSH1 0xB DUP3 ADD SWAP1 POP SWAP2 SWAP1 POP JUMP JUMPDEST PUSH32 0x436861696E2049443A2000000000000000000000000000000000000000000000 PUSH1 0x0 DUP3 ADD MSTORE POP JUMP JUMPDEST PUSH1 0x0 PUSH2 0xFE1 PUSH1 0xA DUP4 PUSH2 0xD26 JUMP JUMPDEST SWAP2 POP PUSH2 0xFEC DUP3 PUSH2 0xFAB JUMP JUMPDEST PUSH1 0xA DUP3 ADD SWAP1 POP SWAP2 SWAP1 POP JUMP JUMPDEST PUSH32 0x4E6F6E63653A2000000000000000000000000000000000000000000000000000 PUSH1 0x0 DUP3 ADD MSTORE POP JUMP JUMPDEST PUSH1 0x0 PUSH2 0x102D PUSH1 0x7 DUP4 PUSH2 0xD26 JUMP JUMPDEST SWAP2 POP PUSH2 0x1038 DUP3 PUSH2 0xFF7 JUMP JUMPDEST PUSH1 0x7 DUP3 ADD SWAP1 POP SWAP2 SWAP1 POP JUMP JUMPDEST PUSH1 0x0 PUSH2 0x104E DUP3 PUSH2 0xD5A JUMP JUMPDEST SWAP2 POP PUSH2 0x1059 DUP3 PUSH2 0xDA6 JUMP JUMPDEST SWAP2 POP PUSH2 0x1065 DUP3 DUP10 PUSH2 0xDFE JUMP JUMPDEST SWAP2 POP PUSH2 0x1070 DUP3 PUSH2 0xE58 JUMP JUMPDEST SWAP2 POP PUSH2 0x107B DUP3 PUSH2 0xEA4 JUMP JUMPDEST SWAP2 POP PUSH2 0x1087 DUP3 DUP9 PUSH2 0xDFE JUMP JUMPDEST SWAP2 POP PUSH2 0x1092 DUP3 PUSH2 0xE58 JUMP JUMPDEST SWAP2 POP PUSH2 0x109D DUP3 PUSH2 0xEF0 JUMP JUMPDEST SWAP2 POP PUSH2 0x10A9 DUP3 DUP8 PUSH2 0xDFE JUMP JUMPDEST SWAP2 POP PUSH2 0x10B4 DUP3 PUSH2 0xE58 JUMP JUMPDEST SWAP2 POP PUSH2 0x10BF DUP3 PUSH2 0xF3C JUMP JUMPDEST SWAP2 POP PUSH2 0x10CB DUP3 DUP7 PUSH2 0xDFE JUMP JUMPDEST SWAP2 POP PUSH2 0x10D6 DUP3 PUSH2 0xE58 JUMP JUMPDEST SWAP2 POP PUSH2 0x10E1 DUP3 PUSH2 0xF88 JUMP JUMPDEST SWAP2 POP PUSH2 0x10EC DUP3 PUSH2 0xFD4 JUMP JUMPDEST SWAP2 POP PUSH2 0x10F8 DUP3 DUP6 PUSH2 0xDFE JUMP JUMPDEST SWAP2 POP PUSH2 0x1103 DUP3 PUSH2 0xE58 JUMP JUMPDEST SWAP2 POP PUSH2 0x110E DUP3 PUSH2 0x1020 JUMP JUMPDEST SWAP2 POP PUSH2 0x111A DUP3 DUP5 PUSH2 0xDFE JUMP JUMPDEST SWAP2 POP DUP2 SWAP1 POP SWAP8 SWAP7 POP POP POP POP POP POP POP JUMP JUMPDEST PUSH32 0x19457468657265756D205369676E6564204D6573736167653A0A333200000000 PUSH1 0x0 DUP3 ADD MSTORE POP JUMP JUMPDEST PUSH1 0x0 PUSH2 0x1160 PUSH1 0x1C DUP4 PUSH2 0xD26 JUMP JUMPDEST SWAP2 POP PUSH2 0x116B DUP3 PUSH2 0x112A JUMP JUMPDEST PUSH1 0x1C DUP3 ADD SWAP1 POP SWAP2 SWAP1 POP JUMP JUMPDEST PUSH1 0x0 DUP2 SWAP1 POP SWAP2 SWAP1 POP JUMP JUMPDEST PUSH2 0x1191 PUSH2 0x118C DUP3 PUSH2 0xB93 JUMP JUMPDEST PUSH2 0x1176 JUMP JUMPDEST DUP3 MSTORE POP POP JUMP JUMPDEST PUSH1 0x0 PUSH2 0x11A2 DUP3 PUSH2 0x1153 JUMP JUMPDEST SWAP2 POP PUSH2 0x11AE DUP3 DUP5 PUSH2 0x1180 JUMP JUMPDEST PUSH1 0x20 DUP3 ADD SWAP2 POP DUP2 SWAP1 POP SWAP3 SWAP2 POP POP JUMP JUMPDEST PUSH32 0x4E487B7100000000000000000000000000000000000000000000000000000000 PUSH1 0x0 MSTORE PUSH1 0x11 PUSH1 0x4 MSTORE PUSH1 0x24 PUSH1 0x0 REVERT JUMPDEST PUSH1 0x0 PUSH2 0x11F7 DUP3 PUSH2 0xA7C JUMP JUMPDEST SWAP2 POP PUSH2 0x1202 DUP4 PUSH2 0xA7C JUMP JUMPDEST SWAP3 POP DUP3 DUP3 MUL PUSH2 0x1210 DUP2 PUSH2 0xA7C JUMP JUMPDEST SWAP2 POP DUP3 DUP3 DIV DUP5 EQ DUP4 ISZERO OR PUSH2 0x1227 JUMPI PUSH2 0x1226 PUSH2 0x11BD JUMP JUMPDEST JUMPDEST POP SWAP3 SWAP2 POP POP JUMP JUMPDEST PUSH1 0x0 PUSH2 0x1239 DUP3 PUSH2 0xA7C JUMP JUMPDEST SWAP2 POP PUSH2 0x1244 DUP4 PUSH2 0xA7C JUMP JUMPDEST SWAP3 POP DUP3 DUP3 ADD SWAP1 POP DUP1 DUP3 GT ISZERO PUSH2 0x125C JUMPI PUSH2 0x125B PUSH2 0x11BD JUMP JUMPDEST JUMPDEST SWAP3 SWAP2 POP POP JUMP JUMPDEST PUSH32 0x4E487B7100000000000000000000000000000000000000000000000000000000 PUSH1 0x0 MSTORE PUSH1 0x32 PUSH1 0x4 MSTORE PUSH1 0x24 PUSH1 0x0 REVERT JUMPDEST PUSH1 0x0 PUSH2 0x129C DUP3 PUSH2 0xA7C JUMP JUMPDEST SWAP2 POP PUSH1 0x0 DUP3 SUB PUSH2 0x12AF JUMPI PUSH2 0x12AE PUSH2 0x11BD JUMP JUMPDEST JUMPDEST PUSH1 0x1 DUP3 SUB SWAP1 POP SWAP2 SWAP1 POP JUMP JUMPDEST PUSH2 0x12C3 DUP2 PUSH2 0xA7C JUMP JUMPDEST DUP3 MSTORE POP POP JUMP JUMPDEST PUSH1 0x0 PUSH1 0x40 DUP3 ADD SWAP1 POP PUSH2 0x12DE PUSH1 0x0 DUP4 ADD DUP6 PUSH2 0x12BA JUMP JUMPDEST PUSH2 0x12EB PUSH1 0x20 DUP4 ADD DUP5 PUSH2 0x12BA JUMP JUMPDEST SWAP4 SWAP3 POP POP POP JUMP JUMPDEST PUSH32 0x4E487B7100000000000000000000000000000000000000000000000000000000 PUSH1 0x0 MSTORE PUSH1 0x12 PUSH1 0x4 MSTORE PUSH1 0x24 PUSH1 0x0 REVERT JUMPDEST PUSH32 0x4E487B7100000000000000000000000000000000000000000000000000000000 PUSH1 0x0 MSTORE PUSH1 0x21 PUSH1 0x4 MSTORE PUSH1 0x24 PUSH1 0x0 REVERT JUMPDEST PUSH1 0x0 PUSH1 0x20 DUP3 ADD SWAP1 POP PUSH2 0x1365 PUSH1 0x0 DUP4 ADD DUP5 PUSH2 0x12BA JUMP JUMPDEST SWAP3 SWAP2 POP POP JUMP JUMPDEST PUSH1 0x0 PUSH1 0xFF DUP3 AND SWAP1 POP SWAP2 SWAP1 POP JUMP JUMPDEST PUSH2 0x1381 DUP2 PUSH2 0x136B JUMP JUMPDEST DUP3 MSTORE POP POP JUMP JUMPDEST PUSH1 0x0 PUSH1 0x80 DUP3 ADD SWAP1 POP PUSH2 0x139C PUSH1 0x0 DUP4 ADD DUP8 PUSH2 0xB9D JUMP JUMPDEST PUSH2 0x13A9 PUSH1 0x20 DUP4 ADD DUP7 PUSH2 0x1378 JUMP JUMPDEST PUSH2 0x13B6 PUSH1 0x40 DUP4 ADD DUP6 PUSH2 0xB9D JUMP JUMPDEST PUSH2 0x13C3 PUSH1 0x60 DUP4 ADD DUP5 PUSH2 0xB9D JUMP JUMPDEST SWAP6 SWAP5 POP POP POP POP POP JUMP INVALID LOG2 PUSH5 0x6970667358 0x22 SLT KECCAK256 0xE3 DUP15 0xCD 0xBD DUP15 PUSH28 0xB9E2D3894A0EE70239FF661CBAAB2488DC1B6AB77BB1F80B96996473 PUSH16 0x6C634300081B00330000000000000000 "},"methodIdentifiers":{"createMessageHash(address,string,string,string,uint256,uint256)":"5fbcc155","verifySignature(bytes32,bytes)":"daca6f78"}}}}}