{
  "_format": "hh-sol-artifact-1",
  "contractName": "SignatureVerification",
  "sourceName": "contracts/SignatureVerification.sol",
  "abi": [
    {
      "inputs": [],
      "stateMutability": "nonpayable",
      "type": "constructor"
    },
    {
      "inputs": [],
      "name": "ECDSAInvalidSignature",
      "type": "error"
    },
    {
      "inputs": [
        {
          "internalType": "uint256",
          "name": "length",
          "type": "uint256"
        }
      ],
      "name": "ECDSAInvalidSignatureLength",
      "type": "error"
    },
    {
      "inputs": [
        {
          "internalType": "bytes32",
          "name": "s",
          "type": "bytes32"
        }
      ],
      "name": "ECDSAInvalidSignatureS",
      "type": "error"
    },
    {
      "inputs": [
        {
          "internalType": "uint256",
          "name": "value",
          "type": "uint256"
        },
        {
          "internalType": "uint256",
          "name": "length",
          "type": "uint256"
        }
      ],
      "name": "StringsInsufficientHexLength",
      "type": "error"
    },
    {
      "inputs": [
        {
          "internalType": "address",
          "name": "userAddress",
          "type": "address"
        },
        {
          "internalType": "string",
          "name": "domain",
          "type": "string"
        },
        {
          "internalType": "string",
          "name": "statement",
          "type": "string"
        },
        {
          "internalType": "string",
          "name": "uri",
          "type": "string"
        },
        {
          "internalType": "uint256",
          "name": "chainId",
          "type": "uint256"
        },
        {
          "internalType": "uint256",
          "name": "nonce",
          "type": "uint256"
        }
      ],
      "name": "createMessageHash",
      "outputs": [
        {
          "internalType": "bytes32",
          "name": "",
          "type": "bytes32"
        }
      ],
      "stateMutability": "pure",
      "type": "function"
    },
    {
      "inputs": [
        {
          "internalType": "bytes32",
          "name": "hash",
          "type": "bytes32"
        },
        {
          "internalType": "bytes",
          "name": "signature",
          "type": "bytes"
        }
      ],
      "name": "verifySignature",
      "outputs": [
        {
          "internalType": "bool",
          "name": "",
          "type": "bool"
        }
      ],
      "stateMutability": "view",
      "type": "function"
    }
  ],
  "bytecode": "0x6080604052348015600f57600080fd5b506114028061001f6000396000f3fe608060405234801561001057600080fd5b50600436106100365760003560e01c80635fbcc1551461003b578063daca6f781461006b575b600080fd5b61005560048036038101906100509190610ab2565b61009b565b6040516100629190610bac565b60405180910390f35b61008560048036038101906100809190610c94565b61010a565b6040516100929190610d0b565b60405180910390f35b6000856100bf8873ffffffffffffffffffffffffffffffffffffffff16601461017d565b86866100ca876103c3565b6100d3876103c3565b6040516020016100e896959493929190611043565b6040516020818303038152906040528051906020012090509695505050505050565b6000808360405160200161011e9190611197565b60405160208183030381529060405280519060200120905060006101428285610491565b90503373ffffffffffffffffffffffffffffffffffffffff168173ffffffffffffffffffffffffffffffffffffffff16149250505092915050565b606060008390506000600284600261019591906111ec565b61019f919061122e565b67ffffffffffffffff8111156101b8576101b7610951565b5b6040519080825280601f01601f1916602001820160405280156101ea5781602001600182028036833780820191505090505b5090507f30000000000000000000000000000000000000000000000000000000000000008160008151811061022257610221611262565b5b60200101907effffffffffffffffffffffffffffffffffffffffffffffffffffffffffffff1916908160001a9053507f78000000000000000000000000000000000000000000000000000000000000008160018151811061028657610285611262565b5b60200101907effffffffffffffffffffffffffffffffffffffffffffffffffffffffffffff1916908160001a905350600060018560026102c691906111ec565b6102d0919061122e565b90505b6001811115610370577f3031323334353637383961626364656600000000000000000000000000000000600f84166010811061031257610311611262565b5b1a60f81b82828151811061032957610328611262565b5b60200101907effffffffffffffffffffffffffffffffffffffffffffffffffffffffffffff1916908160001a905350600483901c92508061036990611291565b90506102d3565b50600082146103b85784846040517fe22e27eb0000000000000000000000000000000000000000000000000000000081526004016103af9291906112c9565b60405180910390fd5b809250505092915050565b6060600060016103d2846104bd565b01905060008167ffffffffffffffff8111156103f1576103f0610951565b5b6040519080825280601f01601f1916602001820160405280156104235781602001600182028036833780820191505090505b509050600082602001820190505b600115610486578080600190039150507f3031323334353637383961626364656600000000000000000000000000000000600a86061a8153600a858161047a576104796112f2565b5b04945060008503610431575b819350505050919050565b6000806000806104a18686610610565b9250925092506104b1828261066c565b82935050505092915050565b600080600090507a184f03e93ff9f4daa797ed6e38ed64bf6a1f010000000000000000831061051b577a184f03e93ff9f4daa797ed6e38ed64bf6a1f0100000000000000008381610511576105106112f2565b5b0492506040810190505b6d04ee2d6d415b85acef81000000008310610558576d04ee2d6d415b85acef8100000000838161054e5761054d6112f2565b5b0492506020810190505b662386f26fc10000831061058757662386f26fc10000838161057d5761057c6112f2565b5b0492506010810190505b6305f5e10083106105b0576305f5e10083816105a6576105a56112f2565b5b0492506008810190505b61271083106105d55761271083816105cb576105ca6112f2565b5b0492506004810190505b606483106105f857606483816105ee576105ed6112f2565b5b0492506002810190505b600a8310610607576001810190505b80915050919050565b600080600060418451036106555760008060006020870151925060408701519150606087015160001a9050610647888285856107d0565b955095509550505050610665565b60006002855160001b9250925092505b9250925092565b600060038111156106805761067f611321565b5b82600381111561069357610692611321565b5b03156107cc57600160038111156106ad576106ac611321565b5b8260038111156106c0576106bf611321565b5b036106f7576040517ff645eedf00000000000000000000000000000000000000000000000000000000815260040160405180910390fd5b6002600381111561070b5761070a611321565b5b82600381111561071e5761071d611321565b5b03610763578060001c6040517ffce698f700000000000000000000000000000000000000000000000000000000815260040161075a9190611350565b60405180910390fd5b60038081111561077657610775611321565b5b82600381111561078957610788611321565b5b036107cb57806040517fd78bce0c0000000000000000000000000000000000000000000000000000000081526004016107c29190610bac565b60405180910390fd5b5b5050565b60008060007f7fffffffffffffffffffffffffffffff5d576e7357a4501ddfe92f46681b20a08460001c11156108105760006003859250925092506108ba565b6000600188888888604051600081526020016040526040516108359493929190611387565b6020604051602081039080840390855afa158015610857573d6000803e3d6000fd5b505050602060405103519050600073ffffffffffffffffffffffffffffffffffffffff168173ffffffffffffffffffffffffffffffffffffffff16036108ab57600060016000801b935093509350506108ba565b8060008060001b935093509350505b9450945094915050565b6000604051905090565b600080fd5b600080fd5b600073ffffffffffffffffffffffffffffffffffffffff82169050919050565b6000610903826108d8565b9050919050565b610913816108f8565b811461091e57600080fd5b50565b6000813590506109308161090a565b92915050565b600080fd5b600080fd5b6000601f19601f8301169050919050565b7f4e487b7100000000000000000000000000000000000000000000000000000000600052604160045260246000fd5b61098982610940565b810181811067ffffffffffffffff821117156109a8576109a7610951565b5b80604052505050565b60006109bb6108c4565b90506109c78282610980565b919050565b600067ffffffffffffffff8211156109e7576109e6610951565b5b6109f082610940565b9050602081019050919050565b82818337600083830152505050565b6000610a1f610a1a846109cc565b6109b1565b905082815260208101848484011115610a3b57610a3a61093b565b5b610a468482856109fd565b509392505050565b600082601f830112610a6357610a62610936565b5b8135610a73848260208601610a0c565b91505092915050565b6000819050919050565b610a8f81610a7c565b8114610a9a57600080fd5b50565b600081359050610aac81610a86565b92915050565b60008060008060008060c08789031215610acf57610ace6108ce565b5b6000610add89828a01610921565b965050602087013567ffffffffffffffff811115610afe57610afd6108d3565b5b610b0a89828a01610a4e565b955050604087013567ffffffffffffffff811115610b2b57610b2a6108d3565b5b610b3789828a01610a4e565b945050606087013567ffffffffffffffff811115610b5857610b576108d3565b5b610b6489828a01610a4e565b9350506080610b7589828a01610a9d565b92505060a0610b8689828a01610a9d565b9150509295509295509295565b6000819050919050565b610ba681610b93565b82525050565b6000602082019050610bc16000830184610b9d565b92915050565b610bd081610b93565b8114610bdb57600080fd5b50565b600081359050610bed81610bc7565b92915050565b600067ffffffffffffffff821115610c0e57610c0d610951565b5b610c1782610940565b9050602081019050919050565b6000610c37610c3284610bf3565b6109b1565b905082815260208101848484011115610c5357610c5261093b565b5b610c5e8482856109fd565b509392505050565b600082601f830112610c7b57610c7a610936565b5b8135610c8b848260208601610c24565b91505092915050565b60008060408385031215610cab57610caa6108ce565b5b6000610cb985828601610bde565b925050602083013567ffffffffffffffff811115610cda57610cd96108d3565b5b610ce685828601610c66565b9150509250929050565b60008115159050919050565b610d0581610cf0565b82525050565b6000602082019050610d206000830184610cfc565b92915050565b600081905092915050565b7f19457468657265756d205369676e6564204d6573736167653a0a000000000000600082015250565b6000610d67601a83610d26565b9150610d7282610d31565b601a82019050919050565b7f446f6d61696e3a20000000000000000000000000000000000000000000000000600082015250565b6000610db3600883610d26565b9150610dbe82610d7d565b600882019050919050565b600081519050919050565b60005b83811015610df2578082015181840152602081019050610dd7565b60008484015250505050565b6000610e0982610dc9565b610e138185610d26565b9350610e23818560208601610dd4565b80840191505092915050565b7f0a00000000000000000000000000000000000000000000000000000000000000600082015250565b6000610e65600183610d26565b9150610e7082610e2f565b600182019050919050565b7f416464726573733a200000000000000000000000000000000000000000000000600082015250565b6000610eb1600983610d26565b9150610ebc82610e7b565b600982019050919050565b7f53746174656d656e743a20000000000000000000000000000000000000000000600082015250565b6000610efd600b83610d26565b9150610f0882610ec7565b600b82019050919050565b7f5552493a20000000000000000000000000000000000000000000000000000000600082015250565b6000610f49600583610d26565b9150610f5482610f13565b600582019050919050565b7f56657273696f6e3a20310a000000000000000000000000000000000000000000600082015250565b6000610f95600b83610d26565b9150610fa082610f5f565b600b82019050919050565b7f436861696e2049443a2000000000000000000000000000000000000000000000600082015250565b6000610fe1600a83610d26565b9150610fec82610fab565b600a82019050919050565b7f4e6f6e63653a2000000000000000000000000000000000000000000000000000600082015250565b600061102d600783610d26565b915061103882610ff7565b600782019050919050565b600061104e82610d5a565b915061105982610da6565b91506110658289610dfe565b915061107082610e58565b915061107b82610ea4565b91506110878288610dfe565b915061109282610e58565b915061109d82610ef0565b91506110a98287610dfe565b91506110b482610e58565b91506110bf82610f3c565b91506110cb8286610dfe565b91506110d682610e58565b91506110e182610f88565b91506110ec82610fd4565b91506110f88285610dfe565b915061110382610e58565b915061110e82611020565b915061111a8284610dfe565b9150819050979650505050505050565b7f19457468657265756d205369676e6564204d6573736167653a0a333200000000600082015250565b6000611160601c83610d26565b915061116b8261112a565b601c82019050919050565b6000819050919050565b61119161118c82610b93565b611176565b82525050565b60006111a282611153565b91506111ae8284611180565b60208201915081905092915050565b7f4e487b7100000000000000000000000000000000000000000000000000000000600052601160045260246000fd5b60006111f782610a7c565b915061120283610a7c565b925082820261121081610a7c565b91508282048414831517611227576112266111bd565b5b5092915050565b600061123982610a7c565b915061124483610a7c565b925082820190508082111561125c5761125b6111bd565b5b92915050565b7f4e487b7100000000000000000000000000000000000000000000000000000000600052603260045260246000fd5b600061129c82610a7c565b9150600082036112af576112ae6111bd565b5b600182039050919050565b6112c381610a7c565b82525050565b60006040820190506112de60008301856112ba565b6112eb60208301846112ba565b9392505050565b7f4e487b7100000000000000000000000000000000000000000000000000000000600052601260045260246000fd5b7f4e487b7100000000000000000000000000000000000000000000000000000000600052602160045260246000fd5b600060208201905061136560008301846112ba565b92915050565b600060ff82169050919050565b6113818161136b565b82525050565b600060808201905061139c6000830187610b9d565b6113a96020830186611378565b6113b66040830185610b9d565b6113c36060830184610b9d565b9594505050505056fea2646970667358221220e38ecdbd8e7bb9e2d3894a0ee70239ff661cbaab2488dc1b6ab77bb1f80b969964736f6c634300081b0033",
  "linkReferences": {},
  "deployedLinkReferences": {}
}